:10F800000C94387C0C944A7C0C944A7C0C944A7C72
:10F810000C944A7C0C944A7C0C944A7C0C944A7C50
:10F820000C944A7C0C944A7C0C944A7C0C944A7C40
:10F830000C944A7C0C944A7C0C944A7C0C944A7C30
:10F840000C944A7C0C944A7C0C944A7C0C944A7C20
:10F850000C944A7C0C944A7C0C944A7C0C944A7C10
:10F860000C944A7C0C944A7C0C944A7C0C944A7C00
:10F8700011241FBECFEFD0E1DEBFCDBF12E0A0E06C
:10F88000B1E001C01D92A930B107E1F70E940C7DE3
:10F890000C94AC7F0C94007C8091C00087FFFCCF5F
:10F8A0003091C600432F8091C00085FFFCCF30937C
:10F8B000C6008091C00087FFFCCF2091C600822F38
:10F8C0009091C00095FFFCCF2093C60031367CF4A8
:10F8D000303314F040ED430F213664F4203314F03C
:10F8E00080ED820F90E1499F800D1124089549EA2F
:10F8F000430FF2CF89EA820FF5CF282F332727FD58
:10F900003095207F33273595279535952795359563
:10F910002795359527952A30A4F0295A8F708A307B
:10F9200074F0895A9091C00095FFFCCF2093C600D7
:10F930009091C00095FFFCCF8093C6000895805D34
:10F94000F1CF205DEBCF9091C00095FFFCCF80936D
:10F95000C60008958091C00087FFFCCF8091C6004B
:10F960000895882351F020E09091C00097FFFCCFCC
:10F970009091C6002F5F2813F7CF08959091C00093
:10F9800097FFFCCF9091C600903241F08091020128
:10F990008F5F809302018530B1F008959091C0008F
:10F9A00095FFFCCF94E19093C6009091C00095FF25
:10F9B000FCCF8093C6008091C00085FFFCCF80E122
:10F9C0008093C6000895E0910001F091010109942F
:10F9D0008091C00087FFFCCF8091C600803241F04B
:10F9E000809102018F5F80930201853081F008953C
:10F9F0008091C00085FFFCCF84E18093C600809198
:10FA0000C00085FFFCCF80E18093C6000895E0919F
:10FA10000001F09101010994000089E18093C40084
:10FA20001092C50088E18093C10086E08093C200F7
:10FA30005098589A54E1E52E6EE1762E76E9872E9D
:10FA4000E9E09E2EF0E1FF2EA1E4AA2EB6E5BB2E42
:10FA5000C2E5CC2ED0E2DD2E8091C00087FFFCCF26
:10FA60008091C600803309F47CC0813381F18034F9
:10FA700009F46FC0813409F477C0823409F4D2C12B
:10FA8000853409F4D9C190EB980F933008F469C01C
:10FA9000853509F47FC0863509F4DCC1843609F464
:10FAA00091C0843709F407C1853709F46FC18637DF
:10FAB00009F46CC0809102018F5F80930201853050
:10FAC00059F6E0910001F09101010995C5CF8091AF
:10FAD000C00087FFFCCF8091C600803259F780912B
:10FAE000C00085FFFCCFE092C6008091C00085FF7A
:10FAF000FCCFA092C6008091C00085FFFCCFB092E1
:10FB0000C6008091C00085FFFCCFC092C6008091E6
:10FB1000C00085FFFCCFD092C6008091C00085FF59
:10FB2000FCCF89E48093C6008091C00085FFFCCFA4
:10FB300083E58093C6008091C00085FFFCCF80E5FF
:10FB40008093C6008091C00085FFFCCFF092C60074
:10FB500083CF8091C00087FFFCCF8091C60086389C
:10FB600050F50E94E87C78CF8091C00087FFFCCFE1
:10FB70008091C600803809F477C1813809F478C1D2
:10FB8000823809F479C1883909F460C180E00E94A3
:10FB9000BE7C62CF8091C00087FFFCCF8091C60001
:10FBA000809303018091C00087FFFCCF8091C60045
:10FBB00080930401D6CF8091C00087FFFCCF809155
:10FBC000C600CFCF8091C00087FFFCCF8091C600D8
:10FBD000809306028091C00087FFFCCF5091C60041
:10FBE00050930502909108029E7F909308028091A5
:10FBF000C00087FFFCCF8091C600853409F440C166
:10FC0000E5E0F1E0119281E0E538F807D9F72091BD
:10FC10000502309106022115310579F0C9018B5F8B
:10FC20009E4FE5E0F1E04091C00047FFFCCF4091DE
:10FC3000C6004193E817F907B1F78091C00087FF2C
:10FC4000FCCF8091C600803209F034CF8091080249
:10FC500080FF1AC1232B11F18091030190910401BF
:10FC6000E5E0F1E020E030E0F999FECF92BD81BD02
:10FC7000819180BDFA9AF99A8091030190910401D3
:10FC8000019690930401809303012F5F3F4F4091B1
:10FC90000502509106022417350730F38091C00009
:10FCA00085FFFCCFE092C6008091C00085FFFCCFAD
:10FCB000F092C600D1CE8091C00087FFFCCF80912A
:10FCC000C600809306028091C00087FFFCCF809120
:10FCD000C600809305028091C00087FFFCCF809111
:10FCE000C600853409F432C1809108028E7F80936A
:10FCF00008028091030190910401880F991F90934D
:10FD00000401809303018091C00087FFFCCF8091A4
:10FD1000C600803209F0A0CE8091C00085FFFCCFE4
:10FD2000E092C6008091050290910602009729F1A9
:10FD300020E030E0E0910301F091040140910802DD
:10FD400040FD4CC041FD0FC0E4918091C00085FF93
:10FD5000FCCFE093C6008091050290910602E091ED
:10FD60000301F09104013196F0930401E093030143
:10FD70002F5F3F4F2817390708F38091C00085FD9A
:10FD8000E5CE8091C00085FFF8CFE0CE8091C00025
:10FD900087FFFCCF8091C600803209F08BCE809126
:10FDA000C00085FFFCCFE092C6008091C00085FFB7
:10FDB000FCCF7092C6008091C00085FFFCCF80927E
:10FDC000C6008091C00085FFFCCF9092C600809154
:10FDD000C00085FFFCCFF092C6003ECEF999FECF61
:10FDE000F2BDE1BDF89A90B58091C00085FFFCCFCF
:10FDF0009093C600E0910301F09104013196F093D5
:10FE00000401E093030180910502909106022F5FA7
:10FE10003F4F2817390708F491CF8091C00085FF24
:10FE2000B0CF94CE94E18091C00087FFFCCF809149
:10FE3000C6009150C1F795CE95E08091C00087FF34
:10FE4000FCCF8091C6009150C1F78BCE83E00E9419
:10FE5000BE7C02CE94E08091C00087FFFCCF8091F1
:10FE6000C6009150C1F792CE82E00E94BE7CF4CDD4
:10FE700081E00E94BE7CF0CD80E10E94BE7CECCD92
:10FE8000916090930802BCCE80910301909104018F
:10FE9000880F991F909304018093030150FF06C0BF
:10FEA0002F5F3F4F3093060220930502F999FECF52
:10FEB0001127E0910301F0910401C5E0D1E08091A8
:10FEC000050290910602103091F4009157000170E4
:10FED0000130D9F303E000935700E89500915700F3
:10FEE00001700130D9F301E100935700E8950990C2
:10FEF00019900091570001700130D9F301E000938F
:10FF00005700E8951395103898F011270091570085
:10FF100001700130D9F305E000935700E895009196
:10FF2000570001700130D9F301E100935700E895C3
:10FF30003296029709F0C7CF103011F00296E5CF44
:10FF400011248091C00085FFA9CEACCE809108021B
:0CFF5000816080930802D7CEF894FFCFA8
:040000030000F80001
:00000001FF
