:100000001BC035C034C033C032C031C01EC42FC085
:100010002FCA2DC02CC02BC02AC029C028C027C081
:1000200026C025C024C027C22DC244C24BC252C222
:1000300059C260C267C274C211241FBECFE5D2E0AC
:10004000DEBFCDBF10E0A0E6B0E0E6ECFCE102C010
:1000500005900D92AC3AB107D9F711E0ACEAB0E0E7
:1000600001C01D92AC3AB107E1F777D22ACEC8CFD2
:10007000823091F0833028F4882361F08130A1F43C
:1000800007C0843069F0843048F0853069F40AC0D4
:1000900084E6089584E4089582E4089582E608954C
:1000A00084E508958FE4089586E08093B80080E0A9
:1000B00008950895882361F080E090E0A0E0B0E02A
:1000C0008093620190936301A0936401B0936501F2
:1000D0000895EF92FF920F931F93E0906201F090CA
:1000E00063010091640110916501C801B70120E02E
:1000F00038ED4FE958ECD5DB88232CF480E098EDFF
:10010000AFE9B8EC0DC0C801B70120E030E040E035
:1001100050E0E5DC181664F480E090E0A0E0B0E088
:100120008093620190936301A0936401B093650191
:100130001F910F91FF90EF9008950895FC0189B7EA
:100140008D7F89BF80819181892B11F090E003C060
:100150007183608391E089B7826089BF892F089598
:1001600044D7882319F01092A80017D880E090E0B7
:1001700096D21092B8000895EF92FF920F931F93BA
:100180008091B7008823D1F484EA90E066E871E0BA
:10019000D5DF882399F081E08093B700BBD37B0142
:1001A0008C01BED3A801970117DB20E030E040E0CE
:1001B0005FE377DB882314F481E0D8D28091B70025
:1001C000813061F484EA90E060E070E0B7DF88237A
:1001D00029F082E08093B70080E0C8D28CEA90E0FA
:1001E0006DE073E0ABDF882389F084E190E076D2A4
:1001F00011E0682F612784E190E080D28EE190E0E9
:100200006DD218278EE190E0612F78D282EA90E0DB
:1002100060E070E093DF882351F0E7D6882321F077
:100220001092A800BAD703C084E08093A8001F9161
:100230000F91FF90EF90089580E090E030D2809190
:10024000B8008093BA008CEA90E06DE073E076DF4E
:10025000882321F18091BC002091BA00821728F4F4
:1002600084E190E06091BB0008C030E090E0281786
:10027000390794F084E190E060E040D28091BB00C7
:1002800091E089278093BB00882341F48091BC00D2
:100290008F5F8093BC0008951092BC000895AF92C8
:1002A000BF92CF92DF92EF92FF920F931F932FD3C3
:1002B0007B018C012FD35B016C01C801B701A60142
:1002C000950111DC7B018C01C601B50120E030E015
:1002D00040E050E004DC18164CF4C801B70122E5F8
:1002E00038EB4EE55FE3FFDB7B018C01609162013F
:1002F000709163018091640190916501A80197015B
:100300006CDA60936201709363018093640190934F
:100310006501DFDE1F910F91FF90EF90DF90CF908E
:10032000BF90AF900895EF92FF920F931F9380912B
:100330006A018F5F80936A018C33A1F480916B0115
:100340008F5F80936B018C3359F480916C018F5FC8
:1003500080936C01883111F410926C0110926B0142
:1003600010926A019CDF8091B4009091B5000196D3
:100370009093B5008093B4008D52914020F110927B
:10038000B5001092B400E0906201F090630100911A
:10039000640110916501609166017091670180911F
:1003A000680190916901A80197017BDA882359F0CF
:1003B000E0926601F0926701009368011093690171
:1003C000C801B701DAD31F910F91FF90EF90089504
:1003D0008091BE00882331F481E08093BE00A7D3D2
:1003E0001092BE000895EF92FF920F931F937A012F
:1003F000DC010D900020E9F78D0101501040081B31
:10040000190B080F191FC8012EDCC8010396B7018C
:100410002ADC1F910F91FF90EF9008951F9366D8EB
:10042000882309F098C01091BD001F5F1093BD0094
:1004300010921A018091B900582F5295507F40E0D8
:100440009091A80080E0482B592B8091B80090E053
:10045000482B592B8AE191E060E670E035D9812F75
:1004600069E0BEDBE92FF0E0E930F10508F06DC08E
:10047000ED5EFF4F09941ED1AC018AE191E063E685
:1004800070E016C080916C0190E06CE370E096DB48
:1004900020916B01820F911D6CE370E08FDB209146
:1004A0006A01AC01420F511D8AE191E067E670E0FC
:1004B0000BD94BC02CD29B01AC018AE191E06BE6D9
:1004C00070E02CC027D29B01AC018AE191E06FE67D
:1004D00070E024C019D29B01AC018AE191E063E78E
:1004E00070E01CC01AD29B01AC018AE191E067E781
:1004F00070E014C015D29B01AC018AE191E06BE77A
:1005000070E00CC020916201309163014091640160
:10051000509165018AE191E06FE770E010D915C054
:100520008AE191E063E870E047E850E05CDFEAE1EF
:10053000F1E001900020E9F73197EA51F140CF0155
:10054000865E9E4F60EA70E08EDB8AE191E0A5D87E
:100550008AE191E024D81F91089563D069D080E0AA
:1005600005D16BD089D0AFD008D106D480E033D785
:1005700080E090E094D083E08093A8001092B800CF
:1005800041D320E030EC4FE756E426D96093620176
:100590007093630180936401909365019ADD80916B
:1005A000620190916301A0916401B0916501809313
:1005B000660190936701A0936801B093690184E19B
:1005C00090E061E09BD08EE190E060E097D0A4D015
:1005D000FFDE24DF82EB90E062E47FE0AFDD81119B
:1005E000A2DE8091A800823011F426DEF0CF8130A7
:1005F00011F475D6ECCF833011F4BEDDE8CF88233B
:1006000031F4BBD69091A800992309F304C084303B
:10061000F1F6A6DDDCCF80E0913009F481E04ADD1F
:10062000D6CF10926A0110926B0110926C0108955E
:10063000D79ADF9AD69ADE98089582E089BD80ED38
:1006400097E00197F1F709B400FEFDCF89B584600A
:1006500089BD0895BB9AC3980895882331F080B767
:10066000806280BF87B5806205C080B78F7D80BF04
:1006700087B58F7D87BD08951F9311E010BF1FBD03
:1006800016BC10B881E0E9DF15BC1EBC14BC15BC5B
:100690008FEF8CBD15BD8BBDDDDF1F91089595BD1E
:1006A0008CBD892B21F480E0D8DFD4DF089581E070
:1006B000D4DF08952CB530E045B5942F80E0282B89
:1006C000392BC901089515BA81E083BF14BA12BE4F
:1006D00013BA12BA89B7826089BF0895449729F482
:1006E0008BB3881F8827881F08958BB390E026E07E
:1006F000969587952A95E1F781700895449731F48E
:10070000662311F0DF9A0895DF980895662311F0AB
:10071000DE9A0895DE9808958091A800843038F418
:10072000823018F5882331F08130C9F407C0843055
:10073000B1F40CC08EE190E060E00BC08EE190E07F
:1007400061E0DCDF84E190E060E007C08EE190E0F2
:1007500061E0D4DF84E190E061E0D0DF089582E0E1
:100760008093A80088E08093B8000895882311F052
:10077000C69A01C0C698BE9A08957894089580914B
:10078000BF008F5F8093BF0090E087709070892BCF
:1007900009F05AC08091B2009091B300892B49F0C2
:1007A0008091B2009091B30001979093B300809331
:1007B000B2008091A2009091A300892B49F0809112
:1007C000A2009091A30001979093A3008093A200B0
:1007D0008091AC009091AD00892B49F08091AC00E4
:1007E0009091AD0001979093AD008093AC00809103
:1007F000AE009091AF00892B49F08091AE009091AE
:10080000AF0001979093AF008093AE008091B0004D
:100810009091B100892B49F08091B0009091B10086
:1008200001979093B1008093B0008091A4009091C3
:10083000A500892B49F08091A4009091A500019713
:100840009093A5008093A40008951F920F920FB675
:100850000F9211242F933F934F935F936F937F9346
:100860008F939F93AF93BF93EF93FF9388DFFF9195
:10087000EF91BF91AF919F918F917F916F915F9118
:100880004F913F912F910F900FBE0F901F90189591
:100890008F34C1F0803528F4823471F08434A1F4AF
:1008A00009C0823659F0843619F0843569F408C0DD
:1008B00081E0089580E0089582E0089583E008953E
:1008C00084E0089585E0089587E08093B80080E093
:1008D000089584E5DDDFE82FF0E0EE0FFF1FE35918
:1008E000FE4F808191810895D3DFE82FF0E0EE0F75
:1008F000FF1FEE0FFF1FE758FE4F2081318142811D
:100900005381B901CA01089584E5EEDF089582E6B6
:10091000EBDF089582E4E8DF089584E6E5DF0895DB
:1009200084E4E2DF0895A0E0B0E0E8E9F4E06AC919
:10093000082FEB019DDB182F843561F0853528F4F5
:10094000823481F0843499F40DC0823641F08436CB
:1009500071F405C0CE01B8D26B017C0117C0CE0185
:10096000E1D102C0CE01E9D16B017C010DC089E06B
:100970008093B8000F2EF0E0CF2EF0E0DF2EF0E0F5
:10098000EF2EF0E0FF2EF02D1435E1F421DDE02F05
:10099000F0E0EE0FFF1FEE0FFF1FE758FE4F6081E4
:1009A00071818281938123E333E343E75FE39BD843
:1009B0004B015C010DDDC701B6012DEC3CEC4CE4B4
:1009C0005DE344C0C02FD0E0143439F5CC0FDD1FF7
:1009D000CC0FDD1FC758DE4F88809980AA80BB806E
:1009E000C701B601A50194015CD788235CF40F2EE2
:1009F000FDECCF2EFCECDF2EFCE4EF2EFDEBFF2E0A
:100A0000F02D27C00F2EFDECCF2EFCECDF2EFCE4EA
:100A1000EF2EFDE3FF2EF02D1CC0DADCCC0FDD1F26
:100A2000CC0FDD1FC758DE4F688179818A819B8199
:100A300026E636E646E65FE356D84B015C01C8DCA5
:100A4000C701B6012DEC3CEC4CEC5DE34CD86B01DE
:100A50007C01BEDC10E0000F111F000F111F0758B2
:100A60001E4FC501B401A7019601B7D6F8016083F6
:100A7000718382839383CDB7DEB7ECE0DFC80F9339
:100A80001F93CF93DF93EC018FE402DF082F1091C7
:100A9000C000181781F48091C100882391F5E12FDF
:100AA000F0E0EE0FFF1FE359FE4FD183C08381E0DA
:100AB0008093C10026C084E4EBDE181741F010914A
:100AC000C00082E4E5DE181711F0BE010FC0E02F70
:100AD000F0E0EE0FFF1FE359FE4F80819181BE01D0
:100AE000681B790B77FF02C060507C4F8091C0007B
:100AF000E82FF0E0EE0FFF1FE359FE4F7183608394
:100B000012DF1092C3001092C2008091C0008F5F6C
:100B10008093C000863010F01092C0008091C00019
:100B2000A7DA40D1DF91CF911F910F9108951CD189
:100B30008823A1F015D19C018091C2009091C3003F
:100B400001969093C3008093C200059730F0C901CD
:100B500096DF1092C3001092C20000D108959C014C
:100B6000862F90E06CE070E029D8BC0160507040A6
:100B7000C9014CE050E08ED80895ACE0B0E0E2EC62
:100B8000F5E04AC82DEA3EED3A8329836B837C83E6
:100B90008D839E836091C4008091C5009091C600B2
:100BA0002091C7006F83888799872A878FEE9EEBF5
:100BB0009C878B876F70CE010196D1DF8091C40036
:100BC0009091C500A091C600B091C7000196A11DEB
:100BD000B11D8093C4009093C500A093C600B0934C
:100BE000C7002C96E2E034C89C01862F90E06CE0B0
:100BF00070E0E4D7BC0160507040C9014CE050E0A7
:100C000039D808956F927F929F92AF92BF92CF9200
:100C1000DF92EF92FF920F931F93DF93CF93CDB7A5
:100C2000DEB72C970FB6F894DEBF0FBECDBFEE2413
:100C3000FF2487019924AA24BB24CC24DD243E016F
:100C40000894611C711CC3016D2DCEDF89819A81CE
:100C50008D5A9E4D29F48B859C858F5E9E4B69F045
:100C60008091B90081608093B900992428EDA22E6B
:100C70009FE9B92E88ECC82E1BC08F819885A98565
:100C8000BA85E816F9060A071B0718F0D801C7014C
:100C900004C09B80AC80BD80CE80D39420E1D2166E
:100CA00019F07C018D01CFCF0097A105B105A9F402
:100CB0001092C4001092C5001092C6001092C70096
:100CC00000E010E060E078ED8FE998EC56DF0F5F10
:100CD0001F4F00311105B1F70BC00196A11DB11DC9
:100CE0008093C4009093C500A093C600B093C70042
:100CF000292D3A2D4B2D5C2DB901CA012C960FB62A
:100D0000F894DEBF0FBECDBFCF91DF911F910F9141
:100D1000FF90EF90DF90CF90BF90AF909F907F902B
:100D20006F900895A0E0B0E0BC01CD0126D622EE80
:100D300037E04AEF5CE3D7D608959C0191FF02C0EB
:100D400020503440B901882777FD8095982F17D619
:100D500029ED32E845E45CE3C6D60895369A089555
:100D600024B135B1C901089586B1829586958695DD
:100D700083708095817008958AB3887C8ABB8BB319
:100D8000887C8BBB87B38F7C87BB88B38F7C88BB09
:100D900086E886B980E883B987B98FE381B980E3B3
:100DA00082B908958F3411F1803528F4823491F09E
:100DB000843409F507C0823689F0843639F08435E9
:100DC000D1F410C087B1807E826113C087B1807E6C
:100DD00088600FC087B1807E8B600BC087B1807E3A
:100DE000876007C087B1807E826003C087B1807E44
:100DF0008D6087B908958AE08093B8000895A4E0D3
:100E0000B0E0E4E0F7E0F8C63B014C01A401930137
:100E10006AD669837A838B839C83A401930163D60A
:100E20001B012C01D5DAC201B101A40193015BD6EB
:100E30005B016C01A401930156D625E438E344E339
:100E400058EB51D67B018C01C601B5012EEA39EB76
:100E500043E85BE348D69B01AC01C801B701BDD4B0
:100E60007B018C01C201B1012FEB3EEC4FE05EEB48
:100E70003AD69B01AC01C801B701AFD47B018C010C
:100E800069817A818B819C812CEF34E744E150E4C5
:100E90002AD69B01AC01C801B7019FD47B018C010C
:100EA000C401B30120E133E44FE951EC1CD69B01AE
:100EB000AC01C801B70191D42FE733EC41EC52E407
:100EC0008CD42496E2E1B4C6AF92BF92CF92DF9267
:100ED000EF92FF920F931F937C017ADA00E010E00B
:100EE000C801B7014AD52DEC3CEC4CE85AE3FBD5E0
:100EF0007B018C016DDAC801B70120E030E042EFE0
:100F000052E4F1D55B016C0163DA60E070E080EAE5
:100F100090E4A801970160D49B01AC01C601B50122
:100F2000C4D46DDF1F910F91FF90EF90DF90CF90B1
:100F3000BF90AF9008958091C9009091CA00895EDA
:100F4000934048F48091CB009091CC00895E93400F
:100F500010F480E0089584E08093B80082E08093EC
:100F6000A80081E0089590916C0180919E019817EE
:100F700071F490916B0180919F01981741F485E085
:100F80008093B80082E08093A80081E0089580E01B
:100F90000895FC0184819581A681B7818083918326
:100FA000A283B38380859185A285B385848395834D
:100FB000A683B783408751876287738708952091FE
:100FC000A0013091A1014091A2015091A301B9016A
:100FD000CA010895209192013091930140919401AA
:100FE00050919501B901CA0108951F9399DC10E051
:100FF00020E030E040E45FE372D518160CF411E015
:10100000812F1F910895F1DF882311F080E008956A
:1010100084E08093A80081E0089579DC20E030E04E
:1010200040E052E45CD5181614F080E0089583E0A7
:101030008093B80082E08093A80081E00895AF9289
:10104000BF92CF92DF92EF92FF920F931F935FDCDC
:101050007B018C0159DC5B016C0190916B018091EB
:101060009101981769F190939101A9DFA801970167
:10107000B3D327EE3BEF49EA5EE331D5882314F082
:101080008DE013C080EA91E0B801A70182DFA2DF02
:101090009B01AC01C601B5019FD320E030E040E0E8
:1010A00050E41DD588233CF08EE08093B80081E0A9
:1010B0008093A80006C082E991E0B601A50169DF2E
:1010C00080E01F910F91FF90EF90DF90CF90BF9045
:1010D000AF90089519DC20E030E04AE152E4FFD4FB
:1010E000181614F080E008958CE08093B80081E039
:1010F0008093A8000895EF92FF920F931F9304DC52
:101100007B018C0120E030E040E251E4CAD3882327
:101110002CF481E08093B80082E00EC0C801B701D2
:1011200020E030E048E452E4DAD4181614F080E00D
:1011300006C082E08093B8008093A80081E01F91F0
:101140000F91FF90EF900895EF92FF920F931F93EE
:10115000DBDB7B018C0120E030E040E251E4A1D3F5
:1011600088232CF481E08093B80082E00EC0C8018F
:10117000B70120E030E044E352E4B1D4181614F093
:1011800080E006C082E08093B8008093A80081E0F0
:101190001F910F91FF90EF90089510926A011092A5
:1011A0006B0110926C0188E180939F0184E0809331
:1011B0009E0110929101A8DB6093920170939301BC
:1011C0008093940190939501A2DB6093A0017093AA
:1011D000A1018093A2019093A30196DB60939601F5
:1011E00070939701809398019093990190DB60939D
:1011F000A4017093A5018093A6019093A70184DBBD
:1012000060939A0170939B0180939C0190939D0140
:101210007EDB6093A8017093A9018093AA0190934B
:10122000AB011092CA001092C9001092CC0010922B
:10123000CB0080E090E033DA0895A0E0B0E0E2E295
:10124000F9E0E1C45B016C01942E64DB7B018C014D
:1012500031DAEC018091A6009091A70081309105D0
:1012600011F01DDA38C0C801B701A601950119D3E4
:101270008823C4F481E0C93FD80720F4CE01019649
:101280000EDA02C0992049F48091C9009091CA00F9
:1012900001969093CA008093C9001092CC001092DE
:1012A000CB0019C0C801B701A601950118D41816C2
:1012B00094F4209719F0CE010197F1D98091CB00D9
:1012C0009091CC0001969093CC008093CB0010922B
:1012D000CA001092C900CDB7DEB7EBE0B0C4EF9200
:1012E000FF920F931F9399DE882309F041C08BDE94
:1012F000882399F409DB7B018C018091C800882345
:1013000079F0F9DE8823A1F5C801B7012AE939E9A6
:1013100045E152E4C6D288235CF51092C80028C08B
:10132000C801B70123E333E349E152E4D8D31816E7
:101330007CF480E090E0B3D91092CA001092C9000A
:101340001092CC001092CB0081E08093C80010C0B6
:10135000FBDE882369F480EB90E063EC70E0EED66E
:10136000882331F06DEC7CEC8CEC9DE340E065DF94
:101370001F910F91FF90EF90089545DE8823F9F4B7
:10138000E3DE8823E1F449DE8823C9F4D4DD882331
:10139000B1F4E9DD882399F452DE882381F49ADEE2
:1013A000882369F480EB90E063EC70E0C7D6882373
:1013B00031F060E070E080EC9FE341E03EDF0895B3
:1013C0001092150110921601109217011092180137
:1013D0001092190108951F93182FF2DFB99AB89847
:1013E00088B3856088BB110F110F18651DB91FB830
:1013F0001F9108958EB190E026E0969587952A95E5
:10140000E1F7817008958FB908958FB1089580E450
:101410008EB908956E9808956E9A08959091150169
:1014200080911601981759F0E0911601EF5FEF7364
:10143000E0931601F0E0E353FF4F808101C080E0AC
:10144000E2DF0895982FE0911701EF5FE770809138
:101450001801E81731F48091190181608093190116
:101460000895E0931701F0E0E35FFE4F9083089545
:101470001F920F920FB60F9211242F933F934F9309
:101480005F936F937F938F939F93AF93BF93EF93EC
:10149000FF93BDDF8FB18111D5DFC0DFFF91EF91E9
:1014A000BF91AF919F918F917F916F915F914F917C
:1014B0003F912F910F900FBE0F901F9018951F9383
:1014C000A9DF9091170180911801981728F01091C9
:1014D00017018091180105C0109117018091180122
:1014E000185F181B99DF812F1F9108951F9392DFBA
:1014F0009091150180911601981728F0109115010F
:101500008091160105C01091150180911601105CA3
:10151000181B82DF812F1F91089580911901089572
:10152000109219010895CBDF811181E008951F9376
:1015300071DF9091170180911801981739F480910B
:10154000190182608093190110E00AC0E09118012E
:10155000EF5FE770E0931801F0E0E35FFE4F10816A
:101560005BDF812F1F9108951F93182F53DF9091F8
:1015700015019F5F9F7380911601981731F4809138
:10158000190184608093190107C0E92FF0E0E3534B
:10159000FF4F1083909315013FDF1F910895CF9364
:1015A000DF93EC0102C0E0DF219688818823D9F720
:1015B000DF91CF9108956827462F4295407F4627B7
:1015C000642F70E023E0660F771F2A95E1F74295BC
:1015D0004F7050E04627572785E0660F771F8A95A2
:1015E000E1F7292F30E0622B732B46275727CA01DA
:1015F00008958A3010F4805D0895895C0895FF9203
:101600000F931F93F82E8B0182958F70F2DFF801F4
:1016100080838F2D8F70EDDFF80181831F910F91F3
:10162000FF900895A2E0B0E0E7E1FBE0F1C2162FE1
:10163000072F5A834983DC010D900020E9F77D01D3
:101640000894E108F108E81AF90AE80EF91EC70142
:101650000AD3E12FF02FDF010D900020E9F78D0173
:10166000015010400E1B1F0B0E0D1F1D85E5F801CC
:10167000808383E28183B8016E5F7F4F8981BFDF02
:10168000B8016C5F7F4FFE0131968181B8DFD801D0
:1016900016961C922296E6E0D7C2CF93DF93EC0118
:1016A0004FEF5FEF04C0CA0186DFAC01219668816D
:1016B0006623C9F7CE0169EA70E0B4DF8DE08F835D
:1016C0001886DF91CF910895A2E0B0E0E9E6FBE053
:1016D0009FC2162F072F5A834983DC010D900020EB
:1016E000E9F77D010894E108F108E81AF90AE80E23
:1016F000F91EC701B8D2E12FF02FDF010D900020B5
:10170000E9F78D01015010400E1B1F0B0E0D1F1D20
:1017100083E5F801808383E28183B8016E5F7F4FA8
:1017200089816DDFB8016C5F7F4FFE013196818149
:1017300066DFD80116961C922296E6E085C2A4E0E8
:10174000B0E0E4EAFBE062C2F62EE72E29833A839A
:101750004B835C836E010894C11CD11CDC010D908D
:101760000020E9F78D0101501040081B190B080FEC
:10177000191FC80178D2EF2DFE2DDF010D9000203A
:10178000E9F77D010894E108F108EE1AFF0AE00E7E
:10179000F11E86E4F701808383E28183B7016E5FE7
:1017A0007F4F89812CDFB7016C5F7F4FD601119687
:1017B0008C9125DFB7016A5F7F4FF60182811FDFC1
:1017C000B701685F7F4FD60113968C9118DFF70140
:1017D00012862496E8E036C25058BB27AA270ED0BE
:1017E00044C135D130F03AD120F031F49F3F11F4AB
:1017F0001EF42AC10EF4E095E7FB20C1E92F46D183
:1018000080F3BA17620773078407950718F071F41D
:101810009EF55EC10EF4E0950B2EBA2FA02D0B01A4
:10182000B90190010C01CA01A0011124FF27591B25
:1018300099F0593F50F4503E68F11A16F040A22F2B
:10184000232F342F4427585FF3CF4695379527959C
:10185000A795F0405395C9F77EF41F16BA0B620B9B
:10186000730B840BBAF09150A1F0FF0FBB1F661FE2
:10187000771F881FC2F70EC0BA0F621F731F841F25
:1018800048F4879577956795B795F7959E3F08F04B
:10189000B3CF9395880F08F09927EE0F979587950A
:1018A0000895A8D008F481E008950CD0DEC0D6D009
:1018B00040F0CDD030F021F45F3F19F0BFC051119E
:1018C00008C1C2C0E3D098F39923C9F35523B1F3FB
:1018D000951B550BBB27AA2762177307840738F09F
:1018E0009F5F5F4F220F331F441FAA1FA9F333D0FE
:1018F0000E2E3AF0E0E830D091505040E695001CB2
:10190000CAF729D0FE2F27D0660F771F881FBB1F6D
:10191000261737074807AB07B0E809F0BB0B802D47
:10192000BF01FF2793585F4F2AF09E3F510568F093
:1019300085C0CFC05F3FECF3983EDCF3869577958A
:101940006795B795F7959F5FC9F7880F911D969595
:10195000879597F90895E1E0660F771F881FBB1FF1
:10196000621773078407BA0720F0621B730B840B9E
:10197000BA0BEE1F88F7E0950895E89409C097FB2D
:101980003EF490958095709561957F4F8F4F9F4F56
:101990009923A9F0F92F96E9BB279395F69587959A
:1019A00077956795B795F111F8CFFAF4BB0F11F45D
:1019B00060FF1BC06F5F7F4F8F4F9F4F16C0882304
:1019C00011F096E911C0772321F09EE8872F762F3A
:1019D00005C0662371F096E8862F70E060E02AF07B
:1019E0009A95660F771F881FDAF7880F9695879567
:1019F00097F90895990F0008550FAA0BE0E8FEEF3C
:101A000016161706E807F907C0F012161306E407C2
:101A1000F50798F0621B730B840B950B39F40A26BB
:101A200061F0232B242B252B21F408950A2609F499
:101A3000A140A6958FEF811D811D089597F99F679D
:101A400080E870E060E008959FEF80EC0895002446
:101A50000A941616170618060906089500240A9413
:101A600012161306140605060895092E0394000C99
:101A700011F4882352F0BB0F40F4BF2B11F460FF28
:101A800004C06F5F7F4F8F4F9F4F089557FD905851
:101A9000440F551F59F05F3F71F04795880F97FB32
:101AA000991F61F09F3F79F08795089512161306EC
:101AB0001406551FF2CF4695F1DF08C0161617061B
:101AC0001806991FF1CF8695710561050894089550
:101AD000E894BB2766277727CB0197F908958ADF1B
:101AE00008F48FEF08950AD0C0CFB1DF28F0B6DF39
:101AF00018F0952309F0A2CFA7CFEBCFC7DFA8F34B
:101B00009923D9F35523C9F3950F50E0551FAA2700
:101B1000EE27FF27BB2700240894679520F4E20FE7
:101B2000F31FB41F0A1E220F331F441FAA1F6695FE
:101B3000A9F7779530F4F30FB41F0A1E121E08F4AC
:101B40006395330F441FAA1F221F769599F7879537
:101B500020F4B40F0A1E121E631F440FAA1F221F77
:101B6000331F8695A9F7862F712D602D11249F575D
:101B700050408AF0E1F088234AF0EE0FFF1FBB1FB0
:101B8000661F771F881F91505040A9F79E3F51054F
:101B900070F054CF9ECF5F3FECF3983EDCF3869518
:101BA00077956795B795F795E7959F5FC1F7FE2BFA
:101BB000880F911D9695879597F9089555270024CC
:101BC00080FF02C0060E571F660F771F6115710553
:101BD00021F096958795009799F7952F802D089578
:101BE000991B79E004C0991F961708F0961B881F6F
:101BF0007A95C9F7809508952F923F924F925F9200
:101C00006F927F928F929F92AF92BF92CF92DF920C
:101C1000EF92FF920F931F93CF93DF93CDB7DEB771
:101C2000CA1BDB0B0FB6F894DEBF0FBECDBF099405
:101C30002A88398848885F846E847D848C849B845C
:101C4000AA84B984C884DF80EE80FD800C811B816A
:101C5000AA81B981CE0FD11D0FB6F894DEBF0FBE99
:101C6000CDBFED010895FB01DC0101900D92002034
:101C7000E1F70895DC01CB01FC01E199FECF06C03C
:101C8000FFBBEEBBE09A31960DB20D924150504031
:101C9000B8F70895DC01CB0102C02D9105D0415069
:101CA0005040D8F70895262FE199FECF1CBA9FBB6C
:101CB0008EBB2DBB0FB6F894E29AE19A0FBE019647
:061CC0000895F894FFCF27
:101CC600533A002C503A002C543A002C423A002C3D
:101CD600623A002C743A002C443A002C643A002CE8
:101CE600573A002C763A00312E332E3136003230F8
:101CF60031322D30342D32370050617472696B00E9
:0C1D06007000E316A1070100032000009C
:00000001FF
